{
  "_format": "hh-sol-artifact-1",
  "contractName": "MultiSigWallet",
  "sourceName": "contracts/MultiSigWallet.sol",
  "abi": [
    {
      "inputs": [
        {
          "internalType": "address[]",
          "name": "_owners",
          "type": "address[]"
        },
        {
          "internalType": "uint256",
          "name": "_numConfirmationsRequired",
          "type": "uint256"
        }
      ],
      "stateMutability": "nonpayable",
      "type": "constructor"
    },
    {
      "anonymous": false,
      "inputs": [
        {
          "indexed": true,
          "internalType": "address",
          "name": "owner",
          "type": "address"
        },
        {
          "indexed": true,
          "internalType": "uint256",
          "name": "txIndex",
          "type": "uint256"
        }
      ],
      "name": "ConfirmTransaction",
      "type": "event"
    },
    {
      "anonymous": false,
      "inputs": [
        {
          "indexed": true,
          "internalType": "address",
          "name": "sender",
          "type": "address"
        },
        {
          "indexed": false,
          "internalType": "uint256",
          "name": "amount",
          "type": "uint256"
        }
      ],
      "name": "Deposit",
      "type": "event"
    },
    {
      "anonymous": false,
      "inputs": [
        {
          "indexed": true,
          "internalType": "address",
          "name": "owner",
          "type": "address"
        },
        {
          "indexed": true,
          "internalType": "uint256",
          "name": "txIndex",
          "type": "uint256"
        }
      ],
      "name": "ExecuteTransaction",
      "type": "event"
    },
    {
      "anonymous": false,
      "inputs": [
        {
          "indexed": true,
          "internalType": "address",
          "name": "owner",
          "type": "address"
        },
        {
          "indexed": true,
          "internalType": "uint256",
          "name": "txIndex",
          "type": "uint256"
        }
      ],
      "name": "RevokeConfirmation",
      "type": "event"
    },
    {
      "anonymous": false,
      "inputs": [
        {
          "indexed": true,
          "internalType": "address",
          "name": "owner",
          "type": "address"
        },
        {
          "indexed": true,
          "internalType": "uint256",
          "name": "txIndex",
          "type": "uint256"
        },
        {
          "indexed": true,
          "internalType": "address",
          "name": "to",
          "type": "address"
        },
        {
          "indexed": false,
          "internalType": "uint256",
          "name": "value",
          "type": "uint256"
        },
        {
          "indexed": false,
          "internalType": "bytes",
          "name": "data",
          "type": "bytes"
        }
      ],
      "name": "SubmitTransaction",
      "type": "event"
    },
    {
      "inputs": [
        {
          "internalType": "uint256",
          "name": "_txIndex",
          "type": "uint256"
        }
      ],
      "name": "confirmTransaction",
      "outputs": [],
      "stateMutability": "nonpayable",
      "type": "function"
    },
    {
      "inputs": [
        {
          "internalType": "uint256",
          "name": "_txIndex",
          "type": "uint256"
        }
      ],
      "name": "executeTransaction",
      "outputs": [],
      "stateMutability": "nonpayable",
      "type": "function"
    },
    {
      "inputs": [],
      "name": "getOwners",
      "outputs": [
        {
          "internalType": "address[]",
          "name": "",
          "type": "address[]"
        }
      ],
      "stateMutability": "view",
      "type": "function"
    },
    {
      "inputs": [
        {
          "internalType": "uint256",
          "name": "_txIndex",
          "type": "uint256"
        }
      ],
      "name": "getTransaction",
      "outputs": [
        {
          "internalType": "address",
          "name": "to",
          "type": "address"
        },
        {
          "internalType": "uint256",
          "name": "value",
          "type": "uint256"
        },
        {
          "internalType": "bytes",
          "name": "data",
          "type": "bytes"
        },
        {
          "internalType": "bool",
          "name": "executed",
          "type": "bool"
        },
        {
          "internalType": "uint256",
          "name": "numConfirmations",
          "type": "uint256"
        }
      ],
      "stateMutability": "view",
      "type": "function"
    },
    {
      "inputs": [],
      "name": "getTransactionCount",
      "outputs": [
        {
          "internalType": "uint256",
          "name": "",
          "type": "uint256"
        }
      ],
      "stateMutability": "view",
      "type": "function"
    },
    {
      "inputs": [
        {
          "internalType": "address",
          "name": "",
          "type": "address"
        }
      ],
      "name": "isOwner",
      "outputs": [
        {
          "internalType": "bool",
          "name": "",
          "type": "bool"
        }
      ],
      "stateMutability": "view",
      "type": "function"
    },
    {
      "inputs": [],
      "name": "numConfirmationsRequired",
      "outputs": [
        {
          "internalType": "uint256",
          "name": "",
          "type": "uint256"
        }
      ],
      "stateMutability": "view",
      "type": "function"
    },
    {
      "inputs": [
        {
          "internalType": "uint256",
          "name": "",
          "type": "uint256"
        }
      ],
      "name": "owners",
      "outputs": [
        {
          "internalType": "address",
          "name": "",
          "type": "address"
        }
      ],
      "stateMutability": "view",
      "type": "function"
    },
    {
      "inputs": [
        {
          "internalType": "uint256",
          "name": "_txIndex",
          "type": "uint256"
        }
      ],
      "name": "revokeConfirmation",
      "outputs": [],
      "stateMutability": "nonpayable",
      "type": "function"
    },
    {
      "inputs": [
        {
          "internalType": "address",
          "name": "_to",
          "type": "address"
        },
        {
          "internalType": "uint256",
          "name": "_value",
          "type": "uint256"
        },
        {
          "internalType": "bytes",
          "name": "_data",
          "type": "bytes"
        }
      ],
      "name": "submitTransaction",
      "outputs": [],
      "stateMutability": "nonpayable",
      "type": "function"
    },
    {
      "inputs": [
        {
          "internalType": "uint256",
          "name": "",
          "type": "uint256"
        }
      ],
      "name": "transactions",
      "outputs": [
        {
          "internalType": "address",
          "name": "to",
          "type": "address"
        },
        {
          "internalType": "uint256",
          "name": "value",
          "type": "uint256"
        },
        {
          "internalType": "bytes",
          "name": "data",
          "type": "bytes"
        },
        {
          "internalType": "bool",
          "name": "executed",
          "type": "bool"
        },
        {
          "internalType": "uint256",
          "name": "numConfirmations",
          "type": "uint256"
        }
      ],
      "stateMutability": "view",
      "type": "function"
    },
    {
      "stateMutability": "payable",
      "type": "receive"
    }
  ],
  "bytecode": "0x608060405234801561001057600080fd5b5060405161135438038061135483398101604081905261002f91610267565b600160005581516100795760405162461bcd60e51b815260206004820152600f60248201526e1bdddb995c9cc81c995c5d5a5c9959608a1b60448201526064015b60405180910390fd5b60008111801561008a575081518111155b6100e75760405162461bcd60e51b815260206004820152602860248201527f696e76616c6964206e756d626572206f6620726571756972656420636f6e6669604482015267726d6174696f6e7360c01b6064820152608401610070565b60005b825181101561022b57600083828151811061010757610107610340565b6020026020010151905060006001600160a01b0316816001600160a01b0316036101635760405162461bcd60e51b815260206004820152600d60248201526c34b73b30b634b21037bbb732b960991b6044820152606401610070565b6001600160a01b03811660009081526002602052604090205460ff16156101bf5760405162461bcd60e51b815260206004820152601060248201526f6f776e6572206e6f7420756e6971756560801b6044820152606401610070565b6001600160a01b03166000818152600260205260408120805460ff1916600190811790915580548082018255918190527fb10e2d527612073b26eecdfd717e6a320cf44b4afac2b0732d9fcbe2b7fa0cf690910180546001600160a01b031916909217909155016100ea565b5060035550610356565b634e487b7160e01b600052604160045260246000fd5b80516001600160a01b038116811461026257600080fd5b919050565b6000806040838503121561027a57600080fd5b82516001600160401b0381111561029057600080fd5b8301601f810185136102a157600080fd5b80516001600160401b038111156102ba576102ba610235565b604051600582901b90603f8201601f191681016001600160401b03811182821017156102e8576102e8610235565b60405291825260208184018101929081018884111561030657600080fd5b6020850194505b8385101561032c5761031e8561024b565b81526020948501940161030d565b506020969096015195979596505050505050565b634e487b7160e01b600052603260045260246000fd5b610fef806103656000396000f3fe6080604052600436106100a05760003560e01c80639ace38c2116100645780639ace38c2146101d0578063a0e67e2b146101f0578063c01a8c8414610212578063c642747414610232578063d0549b8514610252578063ee22610b1461026857600080fd5b8063025e7c27146100e157806320ea8d861461011e5780632e7700f0146101405780632f54bf6e1461015f57806333ea3dc81461019f57600080fd5b366100dc5760405134815233907fe1fffcc4923d04b559f4d29a8bfc6cda04eb5b0d3c460751c2402c5c5cc9109c9060200160405180910390a2005b600080fd5b3480156100ed57600080fd5b506101016100fc366004610afb565b610288565b6040516001600160a01b0390911681526020015b60405180910390f35b34801561012a57600080fd5b5061013e610139366004610afb565b6102b2565b005b34801561014c57600080fd5b506004545b604051908152602001610115565b34801561016b57600080fd5b5061018f61017a366004610b30565b60026020526000908152604090205460ff1681565b6040519015158152602001610115565b3480156101ab57600080fd5b506101bf6101ba366004610afb565b610435565b604051610115959493929190610b98565b3480156101dc57600080fd5b506101bf6101eb366004610afb565b610530565b3480156101fc57600080fd5b50610205610609565b6040516101159190610bd3565b34801561021e57600080fd5b5061013e61022d366004610afb565b61066b565b34801561023e57600080fd5b5061013e61024d366004610c35565b610812565b34801561025e57600080fd5b5061015160035481565b34801561027457600080fd5b5061013e610283366004610afb565b610908565b6001818154811061029857600080fd5b6000918252602090912001546001600160a01b0316905081565b3360009081526002602052604090205460ff166102ea5760405162461bcd60e51b81526004016102e190610d08565b60405180910390fd5b6004548190811061030d5760405162461bcd60e51b81526004016102e190610d2b565b816004818154811061032157610321610d56565b600091825260209091206003600690920201015460ff16156103555760405162461bcd60e51b81526004016102e190610d6c565b60006004848154811061036a5761036a610d56565b600091825260208083203384526004600690930201918201905260409091205490915060ff166103cf5760405162461bcd60e51b815260206004820152601060248201526f1d1e081b9bdd0818dbdb999a5c9b595960821b60448201526064016102e1565b3360009081526004820160205260408120805460ff19169055600582018054600192906103fd908490610daf565b9091555050604051849033907ff0dca620e2e81f7841d07bcc105e1704fb01475b278a9d4c236e1c62945edd5590600090a350505050565b600080606060008060006004878154811061045257610452610d56565b6000918252602090912060069091020180546001820154600383015460058401546002850180549596506001600160a01b039094169492939260ff90921691839061049c90610dc8565b80601f01602080910402602001604051908101604052809291908181526020018280546104c890610dc8565b80156105155780601f106104ea57610100808354040283529160200191610515565b820191906000526020600020905b8154815290600101906020018083116104f857829003601f168201915b50505050509250955095509550955095505091939590929450565b6004818154811061054057600080fd5b60009182526020909120600690910201805460018201546002830180546001600160a01b03909316945090929161057690610dc8565b80601f01602080910402602001604051908101604052809291908181526020018280546105a290610dc8565b80156105ef5780601f106105c4576101008083540402835291602001916105ef565b820191906000526020600020905b8154815290600101906020018083116105d257829003601f168201915b505050506003830154600590930154919260ff1691905085565b6060600180548060200260200160405190810160405280929190818152602001828054801561066157602002820191906000526020600020905b81546001600160a01b03168152600190910190602001808311610643575b5050505050905090565b3360009081526002602052604090205460ff1661069a5760405162461bcd60e51b81526004016102e190610d08565b600454819081106106bd5760405162461bcd60e51b81526004016102e190610d2b565b81600481815481106106d1576106d1610d56565b600091825260209091206003600690920201015460ff16156107055760405162461bcd60e51b81526004016102e190610d6c565b826004818154811061071957610719610d56565b600091825260208083203384526004600690930201919091019052604090205460ff16156107805760405162461bcd60e51b81526020600482015260146024820152731d1e08185b1c9958591e4818dbdb999a5c9b595960621b60448201526064016102e1565b60006004858154811061079557610795610d56565b600091825260208083203384526004600690930201918201905260408220805460ff19166001908117909155600582018054929450909290916107d9908490610e02565b9091555050604051859033907f5cbe105e36805f7820e291f799d5794ff948af2a5f664e580382defb6339004190600090a35050505050565b3360009081526002602052604090205460ff166108415760405162461bcd60e51b81526004016102e190610d08565b600480546001810180835560008381529192908390811061086457610864610d56565b6000918252602090912060069091020180546001600160a01b0319166001600160a01b038716178155600181018590559050600281016108a48482610e64565b5060038101805460ff19169055600060058201556040516001600160a01b03861690839033907fd5a05bf70715ad82a09a756320284a1b54c9ff74cd0f8cce6219e79b563fe59d906108f99089908990610f23565b60405180910390a45050505050565b3360009081526002602052604090205460ff166109375760405162461bcd60e51b81526004016102e190610d08565b6004548190811061095a5760405162461bcd60e51b81526004016102e190610d2b565b816004818154811061096e5761096e610d56565b600091825260209091206003600690920201015460ff16156109a25760405162461bcd60e51b81526004016102e190610d6c565b6000600484815481106109b7576109b7610d56565b9060005260206000209060060201905060035481600501541015610a115760405162461bcd60e51b81526020600482015260116024820152700c6c2dcdcdee840caf0cac6eae8ca40e8f607b1b60448201526064016102e1565b60038101805460ff191660019081179091558154908201546040516000926001600160a01b03169190610a48906002860190610f44565b60006040518083038185875af1925050503d8060008114610a85576040519150601f19603f3d011682016040523d82523d6000602084013e610a8a565b606091505b5050905080610ac75760405162461bcd60e51b81526020600482015260096024820152681d1e0819985a5b195960ba1b60448201526064016102e1565b604051859033907f5445f318f4f5fcfb66592e68e0cc5822aa15664039bd5f0ffde24c5a8142b1ac90600090a35050505050565b600060208284031215610b0d57600080fd5b5035919050565b80356001600160a01b0381168114610b2b57600080fd5b919050565b600060208284031215610b4257600080fd5b610b4b82610b14565b9392505050565b6000815180845260005b81811015610b7857602081850181015186830182015201610b5c565b506000602082860101526020601f19601f83011685010191505092915050565b60018060a01b038616815284602082015260a060408201526000610bbf60a0830186610b52565b931515606083015250608001529392505050565b602080825282518282018190526000918401906040840190835b81811015610c145783516001600160a01b0316835260209384019390920191600101610bed565b509095945050505050565b634e487b7160e01b600052604160045260246000fd5b600080600060608486031215610c4a57600080fd5b610c5384610b14565b925060208401359150604084013567ffffffffffffffff811115610c7657600080fd5b8401601f81018613610c8757600080fd5b803567ffffffffffffffff811115610ca157610ca1610c1f565b604051601f8201601f19908116603f0116810167ffffffffffffffff81118282101715610cd057610cd0610c1f565b604052818152828201602001881015610ce857600080fd5b816020840160208301376000602083830101528093505050509250925092565b6020808252600990820152683737ba1037bbb732b960b91b604082015260600190565b6020808252601190820152701d1e08191bd95cc81b9bdd08195e1a5cdd607a1b604082015260600190565b634e487b7160e01b600052603260045260246000fd5b6020808252601390820152721d1e08185b1c9958591e48195e1958dd5d1959606a1b604082015260600190565b634e487b7160e01b600052601160045260246000fd5b81810381811115610dc257610dc2610d99565b92915050565b600181811c90821680610ddc57607f821691505b602082108103610dfc57634e487b7160e01b600052602260045260246000fd5b50919050565b80820180821115610dc257610dc2610d99565b601f821115610e5f57806000526020600020601f840160051c81016020851015610e3c5750805b601f840160051c820191505b81811015610e5c5760008155600101610e48565b50505b505050565b815167ffffffffffffffff811115610e7e57610e7e610c1f565b610e9281610e8c8454610dc8565b84610e15565b6020601f821160018114610ec65760008315610eae5750848201515b600019600385901b1c1916600184901b178455610e5c565b600084815260208120601f198516915b82811015610ef65787850151825560209485019460019092019101610ed6565b5084821015610f145786840151600019600387901b60f8161c191681555b50505050600190811b01905550565b828152604060208201526000610f3c6040830184610b52565b949350505050565b6000808354610f5281610dc8565b600182168015610f695760018114610f7e57610fae565b60ff1983168652811515820286019350610fae565b86600052602060002060005b83811015610fa657815488820152600190910190602001610f8a565b505081860193505b50919594505050505056fea26469706673582212209b9a4d5995b32fcb024dad60f18d4561b01c7393cca44761ede50ce584bdb01964736f6c634300081c0033",
  "linkReferences": {},
  "deployedLinkReferences": {}
}